{
    "_format": "hh-sol-artifact-1",
    "contractName": "Crowdfunding",
    "sourceName": "contracts/Crowdfunding.sol",
    "abi": [
        {
            "inputs": [
                {
                    "internalType": "uint256",
                    "name": "_target",
                    "type": "uint256"
                },
                {
                    "internalType": "uint256",
                    "name": "_deadline",
                    "type": "uint256"
                }
            ],
            "stateMutability": "nonpayable",
            "type": "constructor"
        },
        {
            "anonymous": false,
            "inputs": [
                {
                    "indexed": false,
                    "internalType": "uint256",
                    "name": "newTime",
                    "type": "uint256"
                }
            ],
            "name": "updateDeadlines",
            "type": "event"
        },
        {
            "inputs": [
                {
                    "internalType": "address",
                    "name": "",
                    "type": "address"
                }
            ],
            "name": "contributors",
            "outputs": [
                {
                    "internalType": "uint256",
                    "name": "",
                    "type": "uint256"
                }
            ],
            "stateMutability": "view",
            "type": "function"
        },
        {
            "inputs": [
                {
                    "internalType": "string",
                    "name": "_cause",
                    "type": "string"
                },
                {
                    "internalType": "string",
                    "name": "_recipientName",
                    "type": "string"
                },
                {
                    "internalType": "string",
                    "name": "_description",
                    "type": "string"
                },
                {
                    "internalType": "address payable",
                    "name": "_recipient",
                    "type": "address"
                },
                {
                    "internalType": "uint256",
                    "name": "_value",
                    "type": "uint256"
                },
                {
                    "internalType": "string",
                    "name": "_imgURL",
                    "type": "string"
                }
            ],
            "name": "createRequests",
            "outputs": [],
            "stateMutability": "nonpayable",
            "type": "function"
        },
        {
            "inputs": [],
            "name": "currentTime",
            "outputs": [
                {
                    "internalType": "uint256",
                    "name": "",
                    "type": "uint256"
                }
            ],
            "stateMutability": "view",
            "type": "function"
        },
        {
            "inputs": [],
            "name": "deadline",
            "outputs": [
                {
                    "internalType": "uint256",
                    "name": "",
                    "type": "uint256"
                }
            ],
            "stateMutability": "view",
            "type": "function"
        },
        {
            "inputs": [],
            "name": "getContractBalance",
            "outputs": [
                {
                    "internalType": "uint256",
                    "name": "",
                    "type": "uint256"
                }
            ],
            "stateMutability": "view",
            "type": "function"
        },
        {
            "inputs": [
                {
                    "internalType": "uint256",
                    "name": "_reqNum",
                    "type": "uint256"
                }
            ],
            "name": "makePayment",
            "outputs": [],
            "stateMutability": "nonpayable",
            "type": "function"
        },
        {
            "inputs": [],
            "name": "manager",
            "outputs": [
                {
                    "internalType": "address",
                    "name": "",
                    "type": "address"
                }
            ],
            "stateMutability": "view",
            "type": "function"
        },
        {
            "inputs": [],
            "name": "minContribution",
            "outputs": [
                {
                    "internalType": "uint256",
                    "name": "",
                    "type": "uint256"
                }
            ],
            "stateMutability": "view",
            "type": "function"
        },
        {
            "inputs": [],
            "name": "noOfContributors",
            "outputs": [
                {
                    "internalType": "uint256",
                    "name": "",
                    "type": "uint256"
                }
            ],
            "stateMutability": "view",
            "type": "function"
        },
        {
            "inputs": [],
            "name": "numRequests",
            "outputs": [
                {
                    "internalType": "uint256",
                    "name": "",
                    "type": "uint256"
                }
            ],
            "stateMutability": "view",
            "type": "function"
        },
        {
            "inputs": [],
            "name": "raisedAmount",
            "outputs": [
                {
                    "internalType": "uint256",
                    "name": "",
                    "type": "uint256"
                }
            ],
            "stateMutability": "view",
            "type": "function"
        },
        {
            "inputs": [],
            "name": "refund",
            "outputs": [],
            "stateMutability": "payable",
            "type": "function"
        },
        {
            "inputs": [
                {
                    "internalType": "uint256",
                    "name": "",
                    "type": "uint256"
                }
            ],
            "name": "requests",
            "outputs": [
                {
                    "internalType": "string",
                    "name": "description",
                    "type": "string"
                },
                {
                    "internalType": "address payable",
                    "name": "recipient",
                    "type": "address"
                },
                {
                    "internalType": "string",
                    "name": "recipientName",
                    "type": "string"
                },
                {
                    "internalType": "uint256",
                    "name": "value",
                    "type": "uint256"
                },
                {
                    "internalType": "bool",
                    "name": "completed",
                    "type": "bool"
                },
                {
                    "internalType": "uint256",
                    "name": "noOfVoters",
                    "type": "uint256"
                },
                {
                    "internalType": "string",
                    "name": "cause",
                    "type": "string"
                },
                {
                    "internalType": "string",
                    "name": "imgURL",
                    "type": "string"
                }
            ],
            "stateMutability": "view",
            "type": "function"
        },
        {
            "inputs": [],
            "name": "sendEth",
            "outputs": [],
            "stateMutability": "payable",
            "type": "function"
        },
        {
            "inputs": [],
            "name": "target",
            "outputs": [
                {
                    "internalType": "uint256",
                    "name": "",
                    "type": "uint256"
                }
            ],
            "stateMutability": "view",
            "type": "function"
        },
        {
            "inputs": [
                {
                    "internalType": "uint256",
                    "name": "newTime",
                    "type": "uint256"
                }
            ],
            "name": "updateDeadline",
            "outputs": [],
            "stateMutability": "nonpayable",
            "type": "function"
        },
        {
            "inputs": [
                {
                    "internalType": "uint256",
                    "name": "_reqNum",
                    "type": "uint256"
                }
            ],
            "name": "voteRequest",
            "outputs": [],
            "stateMutability": "nonpayable",
            "type": "function"
        }
    ],
    "bytecode": "0x60806040523480156200001157600080fd5b50604051620022c6380380620022c68339818101604052810190620000379190620000e3565b8160048190555080426200004c919062000159565b600381905550606460028190555033600160006101000a81548173ffffffffffffffffffffffffffffffffffffffff021916908373ffffffffffffffffffffffffffffffffffffffff160217905550505062000194565b600080fd5b6000819050919050565b620000bd81620000a8565b8114620000c957600080fd5b50565b600081519050620000dd81620000b2565b92915050565b60008060408385031215620000fd57620000fc620000a3565b5b60006200010d85828601620000cc565b92505060206200012085828601620000cc565b9150509250929050565b7f4e487b7100000000000000000000000000000000000000000000000000000000600052601160045260246000fd5b60006200016682620000a8565b91506200017383620000a8565b92508282019050808211156200018e576200018d6200012a565b5b92915050565b61212280620001a46000396000f3fe6080604052600436106100fe5760003560e01c8063590e1ae3116100955780639fb42b1f116100645780639fb42b1f146102e8578063aaffadf314610313578063c59ee1dc1461033e578063d18e81b314610369578063d4b8399214610394576100fe565b8063590e1ae31461024657806359ca5cba146102505780636f9fb98a1461027957806381d12c58146102a4576100fe565b8063481c6a75116100d1578063481c6a751461019e5780634cb6f4a5146101c95780634e260f6f146101f25780635114cb521461021d576100fe565b806306e99fef146101035780631f6d49421461010d57806329dcb0cf1461014a57806342af188414610175575b600080fd5b61010b6103bf565b005b34801561011957600080fd5b50610134600480360381019061012f9190611220565b61054f565b6040516101419190611266565b60405180910390f35b34801561015657600080fd5b5061015f610567565b60405161016c9190611266565b60405180910390f35b34801561018157600080fd5b5061019c600480360381019061019791906112ad565b61056d565b005b3480156101aa57600080fd5b506101b3610649565b6040516101c091906112e9565b60405180910390f35b3480156101d557600080fd5b506101f060048036038101906101eb91906112ad565b61066f565b005b3480156101fe57600080fd5b5061020761084c565b6040516102149190611266565b60405180910390f35b34801561022957600080fd5b50610244600480360381019061023f91906112ad565b610852565b005b61024e610ab4565b005b34801561025c57600080fd5b5061027760048036038101906102729190611488565b610d38565b005b34801561028557600080fd5b5061028e610ef1565b60405161029b9190611266565b60405180910390f35b3480156102b057600080fd5b506102cb60048036038101906102c691906112ad565b610ef9565b6040516102df98979695949392919061162e565b60405180910390f35b3480156102f457600080fd5b506102fd61118e565b60405161030a9190611266565b60405180910390f35b34801561031f57600080fd5b50610328611194565b6040516103359190611266565b60405180910390f35b34801561034a57600080fd5b5061035361119a565b6040516103609190611266565b60405180910390f35b34801561037557600080fd5b5061037e6111a0565b60405161038b9190611266565b60405180910390f35b3480156103a057600080fd5b506103a96111a8565b6040516103b69190611266565b60405180910390f35b6003544210610403576040517f08c379a00000000000000000000000000000000000000000000000000000000081526004016103fa90611714565b60405180910390fd5b600254341015610448576040517f08c379a000000000000000000000000000000000000000000000000000000000815260040161043f90611780565b60405180910390fd5b60008060003373ffffffffffffffffffffffffffffffffffffffff1673ffffffffffffffffffffffffffffffffffffffff16815260200190815260200160002054036104a757600660008154809291906104a1906117cf565b91905055505b346000803373ffffffffffffffffffffffffffffffffffffffff1673ffffffffffffffffffffffffffffffffffffffff16815260200190815260200160002060008282546104f59190611817565b92505081905550346005600082825461050e9190611817565b925050819055507f21fd99389ac29c9a5a67bf9994df7bdd572b44d3335f7ded063a635789f8f3f260046040516105459190611890565b60405180910390a1565b60006020528060005260406000206000915090505481565b60035481565b600160009054906101000a900473ffffffffffffffffffffffffffffffffffffffff1673ffffffffffffffffffffffffffffffffffffffff163373ffffffffffffffffffffffffffffffffffffffff16146105fd576040517f08c379a00000000000000000000000000000000000000000000000000000000081526004016105f49061191d565b60405180910390fd5b80426106099190611817565b6003819055507f21fd99389ac29c9a5a67bf9994df7bdd572b44d3335f7ded063a635789f8f3f28160405161063e9190611266565b60405180910390a150565b600160009054906101000a900473ffffffffffffffffffffffffffffffffffffffff1681565b60008060003373ffffffffffffffffffffffffffffffffffffffff1673ffffffffffffffffffffffffffffffffffffffff16815260200190815260200160002054116106f0576040517f08c379a00000000000000000000000000000000000000000000000000000000081526004016106e790611989565b60405180910390fd5b6000600760008381526020019081526020016000209050600015158160060160003373ffffffffffffffffffffffffffffffffffffffff1673ffffffffffffffffffffffffffffffffffffffff16815260200190815260200160002060009054906101000a900460ff1615151461079c576040517f08c379a0000000000000000000000000000000000000000000000000000000008152600401610793906119f5565b60405180910390fd5b60018160060160003373ffffffffffffffffffffffffffffffffffffffff1673ffffffffffffffffffffffffffffffffffffffff16815260200190815260200160002060006101000a81548160ff02191690831515021790555080600501600081548092919061080b906117cf565b91905055507f21fd99389ac29c9a5a67bf9994df7bdd572b44d3335f7ded063a635789f8f3f260046040516108409190611890565b60405180910390a15050565b60065481565b600160009054906101000a900473ffffffffffffffffffffffffffffffffffffffff1673ffffffffffffffffffffffffffffffffffffffff163373ffffffffffffffffffffffffffffffffffffffff16146108e2576040517f08c379a00000000000000000000000000000000000000000000000000000000081526004016108d99061191d565b60405180910390fd5b6005546004541115610929576040517f08c379a000000000000000000000000000000000000000000000000000000000815260040161092090611a87565b60405180910390fd5b6000600760008381526020019081526020016000209050600015158160040160009054906101000a900460ff16151514610998576040517f08c379a000000000000000000000000000000000000000000000000000000000815260040161098f90611b19565b60405180910390fd5b60026006546109a79190611b68565b8160050154116109ec576040517f08c379a00000000000000000000000000000000000000000000000000000000081526004016109e390611be5565b60405180910390fd5b8060010160009054906101000a900473ffffffffffffffffffffffffffffffffffffffff1673ffffffffffffffffffffffffffffffffffffffff166108fc82600301549081150290604051600060405180830381858888f19350505050158015610a5a573d6000803e3d6000fd5b5060018160040160006101000a81548160ff0219169083151502179055507f21fd99389ac29c9a5a67bf9994df7bdd572b44d3335f7ded063a635789f8f3f26004604051610aa89190611890565b60405180910390a15050565b426003541115610af9576040517f08c379a0000000000000000000000000000000000000000000000000000000008152600401610af090611c77565b60405180910390fd5b60055460045411610b3f576040517f08c379a0000000000000000000000000000000000000000000000000000000008152600401610b3690611d09565b60405180910390fd5b60008060003373ffffffffffffffffffffffffffffffffffffffff1673ffffffffffffffffffffffffffffffffffffffff1681526020019081526020016000205403610bc0576040517f08c379a0000000000000000000000000000000000000000000000000000000008152600401610bb790611d9b565b60405180910390fd5b60003390508073ffffffffffffffffffffffffffffffffffffffff166108fc6000803373ffffffffffffffffffffffffffffffffffffffff1673ffffffffffffffffffffffffffffffffffffffff168152602001908152602001600020549081150290604051600060405180830381858888f19350505050158015610c49573d6000803e3d6000fd5b5060066000815480929190610c5d90611dbb565b91905055506000803373ffffffffffffffffffffffffffffffffffffffff1673ffffffffffffffffffffffffffffffffffffffff1681526020019081526020016000205460056000828254610cb29190611de4565b9250508190555060008060003373ffffffffffffffffffffffffffffffffffffffff1673ffffffffffffffffffffffffffffffffffffffff168152602001908152602001600020819055507f21fd99389ac29c9a5a67bf9994df7bdd572b44d3335f7ded063a635789f8f3f26004604051610d2d9190611890565b60405180910390a150565b600160009054906101000a900473ffffffffffffffffffffffffffffffffffffffff1673ffffffffffffffffffffffffffffffffffffffff163373ffffffffffffffffffffffffffffffffffffffff1614610dc8576040517f08c379a0000000000000000000000000000000000000000000000000000000008152600401610dbf9061191d565b60405180910390fd5b60006007600060086000815480929190610de1906117cf565b919050558152602001908152602001600020905084816000019081610e06919061201a565b50838160010160006101000a81548173ffffffffffffffffffffffffffffffffffffffff021916908373ffffffffffffffffffffffffffffffffffffffff16021790555082816003018190555060008160040160006101000a81548160ff0219169083151502179055506000816005018190555085816002019081610e8b919061201a565b5086816007019081610e9d919061201a565b5081816008019081610eaf919061201a565b507f21fd99389ac29c9a5a67bf9994df7bdd572b44d3335f7ded063a635789f8f3f26004604051610ee09190611890565b60405180910390a150505050505050565b600047905090565b6007602052806000526040600020600091509050806000018054610f1c90611e47565b80601f0160208091040260200160405190810160405280929190818152602001828054610f4890611e47565b8015610f955780601f10610f6a57610100808354040283529160200191610f95565b820191906000526020600020905b815481529060010190602001808311610f7857829003601f168201915b5050505050908060010160009054906101000a900473ffffffffffffffffffffffffffffffffffffffff1690806002018054610fd090611e47565b80601f0160208091040260200160405190810160405280929190818152602001828054610ffc90611e47565b80156110495780601f1061101e57610100808354040283529160200191611049565b820191906000526020600020905b81548152906001019060200180831161102c57829003601f168201915b5050505050908060030154908060040160009054906101000a900460ff169080600501549080600701805461107d90611e47565b80601f01602080910402602001604051908101604052809291908181526020018280546110a990611e47565b80156110f65780601f106110cb576101008083540402835291602001916110f6565b820191906000526020600020905b8154815290600101906020018083116110d957829003601f168201915b50505050509080600801805461110b90611e47565b80601f016020809104026020016040519081016040528092919081815260200182805461113790611e47565b80156111845780601f1061115957610100808354040283529160200191611184565b820191906000526020600020905b81548152906001019060200180831161116757829003601f168201915b5050505050905088565b60085481565b60025481565b60055481565b600042905090565b60045481565b6000604051905090565b600080fd5b600080fd5b600073ffffffffffffffffffffffffffffffffffffffff82169050919050565b60006111ed826111c2565b9050919050565b6111fd816111e2565b811461120857600080fd5b50565b60008135905061121a816111f4565b92915050565b600060208284031215611236576112356111b8565b5b60006112448482850161120b565b91505092915050565b6000819050919050565b6112608161124d565b82525050565b600060208201905061127b6000830184611257565b92915050565b61128a8161124d565b811461129557600080fd5b50565b6000813590506112a781611281565b92915050565b6000602082840312156112c3576112c26111b8565b5b60006112d184828501611298565b91505092915050565b6112e3816111e2565b82525050565b60006020820190506112fe60008301846112da565b92915050565b600080fd5b600080fd5b6000601f19601f8301169050919050565b7f4e487b7100000000000000000000000000000000000000000000000000000000600052604160045260246000fd5b6113578261130e565b810181811067ffffffffffffffff821117156113765761137561131f565b5b80604052505050565b60006113896111ae565b9050611395828261134e565b919050565b600067ffffffffffffffff8211156113b5576113b461131f565b5b6113be8261130e565b9050602081019050919050565b82818337600083830152505050565b60006113ed6113e88461139a565b61137f565b90508281526020810184848401111561140957611408611309565b5b6114148482856113cb565b509392505050565b600082601f83011261143157611430611304565b5b81356114418482602086016113da565b91505092915050565b6000611455826111c2565b9050919050565b6114658161144a565b811461147057600080fd5b50565b6000813590506114828161145c565b92915050565b60008060008060008060c087890312156114a5576114a46111b8565b5b600087013567ffffffffffffffff8111156114c3576114c26111bd565b5b6114cf89828a0161141c565b965050602087013567ffffffffffffffff8111156114f0576114ef6111bd565b5b6114fc89828a0161141c565b955050604087013567ffffffffffffffff81111561151d5761151c6111bd565b5b61152989828a0161141c565b945050606061153a89828a01611473565b935050608061154b89828a01611298565b92505060a087013567ffffffffffffffff81111561156c5761156b6111bd565b5b61157889828a0161141c565b9150509295509295509295565b600081519050919050565b600082825260208201905092915050565b60005b838110156115bf5780820151818401526020810190506115a4565b60008484015250505050565b60006115d682611585565b6115e08185611590565b93506115f08185602086016115a1565b6115f98161130e565b840191505092915050565b61160d8161144a565b82525050565b60008115159050919050565b61162881611613565b82525050565b6000610100820190508181036000830152611649818b6115cb565b9050611658602083018a611604565b818103604083015261166a81896115cb565b90506116796060830188611257565b611686608083018761161f565b61169360a0830186611257565b81810360c08301526116a581856115cb565b905081810360e08301526116b981846115cb565b90509998505050505050505050565b7f446561646c696e6520686173207061737365642e000000000000000000000000600082015250565b60006116fe601483611590565b9150611709826116c8565b602082019050919050565b6000602082019050818103600083015261172d816116f1565b9050919050565b7f416d6f756e742073686f756c642062652067746520313030207765692e000000600082015250565b600061176a601d83611590565b915061177582611734565b602082019050919050565b600060208201905081810360008301526117998161175d565b9050919050565b7f4e487b7100000000000000000000000000000000000000000000000000000000600052601160045260246000fd5b60006117da8261124d565b91507fffffffffffffffffffffffffffffffffffffffffffffffffffffffffffffffff820361180c5761180b6117a0565b5b600182019050919050565b60006118228261124d565b915061182d8361124d565b9250828201905080821115611845576118446117a0565b5b92915050565b6000819050919050565b6000819050919050565b600061187a6118756118708461184b565b611855565b61124d565b9050919050565b61188a8161185f565b82525050565b60006020820190506118a56000830184611881565b92915050565b7f4f6e6c79206d616e616765722063616e2063616c6c20746869732066756e637460008201527f696f6e2e00000000000000000000000000000000000000000000000000000000602082015250565b6000611907602483611590565b9150611912826118ab565b604082019050919050565b60006020820190508181036000830152611936816118fa565b9050919050565b7f596f7520617265206e6f74206120636f6e74726962757465722e000000000000600082015250565b6000611973601a83611590565b915061197e8261193d565b602082019050919050565b600060208201905081810360008301526119a281611966565b9050919050565b7f596f75206861766520616c726561647920766f7465642e200000000000000000600082015250565b60006119df601883611590565b91506119ea826119a9565b602082019050919050565b60006020820190508181036000830152611a0e816119d2565b9050919050565b7f52616973656420616d6f756e7420646964206e6f74207265616368656420746160008201527f726765742e000000000000000000000000000000000000000000000000000000602082015250565b6000611a71602583611590565b9150611a7c82611a15565b604082019050919050565b60006020820190508181036000830152611aa081611a64565b9050919050565b7f546865207265717565737420616c7265616479206265656e20636f6d706c657460008201527f65642e0000000000000000000000000000000000000000000000000000000000602082015250565b6000611b03602383611590565b9150611b0e82611aa7565b604082019050919050565b60006020820190508181036000830152611b3281611af6565b9050919050565b7f4e487b7100000000000000000000000000000000000000000000000000000000600052601260045260246000fd5b6000611b738261124d565b9150611b7e8361124d565b925082611b8e57611b8d611b39565b5b828204905092915050565b7f4d616a6f7269747920646f6573206e6f7420737570706f72742e000000000000600082015250565b6000611bcf601a83611590565b9150611bda82611b99565b602082019050919050565b60006020820190508181036000830152611bfe81611bc2565b9050919050565b7f436f6e7472616374277320646561646c696e6520686173206e6f74207061737360008201527f65642e0000000000000000000000000000000000000000000000000000000000602082015250565b6000611c61602383611590565b9150611c6c82611c05565b604082019050919050565b60006020820190508181036000830152611c9081611c54565b9050919050565b7f416d6f756e74206861732072656163686564207468652074617267657420616d60008201527f7400000000000000000000000000000000000000000000000000000000000000602082015250565b6000611cf3602183611590565b9150611cfe82611c97565b604082019050919050565b60006020820190508181036000830152611d2281611ce6565b9050919050565b7f596f752068617665206e6f7420636f6e747269627574656420696e207468652060008201527f636f6e74726163742e0000000000000000000000000000000000000000000000602082015250565b6000611d85602983611590565b9150611d9082611d29565b604082019050919050565b60006020820190508181036000830152611db481611d78565b9050919050565b6000611dc68261124d565b915060008203611dd957611dd86117a0565b5b600182039050919050565b6000611def8261124d565b9150611dfa8361124d565b9250828203905081811115611e1257611e116117a0565b5b92915050565b7f4e487b7100000000000000000000000000000000000000000000000000000000600052602260045260246000fd5b60006002820490506001821680611e5f57607f821691505b602082108103611e7257611e71611e18565b5b50919050565b60008190508160005260206000209050919050565b60006020601f8301049050919050565b600082821b905092915050565b600060088302611eda7fffffffffffffffffffffffffffffffffffffffffffffffffffffffffffffffff82611e9d565b611ee48683611e9d565b95508019841693508086168417925050509392505050565b6000611f17611f12611f0d8461124d565b611855565b61124d565b9050919050565b6000819050919050565b611f3183611efc565b611f45611f3d82611f1e565b848454611eaa565b825550505050565b600090565b611f5a611f4d565b611f65818484611f28565b505050565b5b81811015611f8957611f7e600082611f52565b600181019050611f6b565b5050565b601f821115611fce57611f9f81611e78565b611fa884611e8d565b81016020851015611fb7578190505b611fcb611fc385611e8d565b830182611f6a565b50505b505050565b600082821c905092915050565b6000611ff160001984600802611fd3565b1980831691505092915050565b600061200a8383611fe0565b9150826002028217905092915050565b61202382611585565b67ffffffffffffffff81111561203c5761203b61131f565b5b6120468254611e47565b612051828285611f8d565b600060209050601f8311600181146120845760008415612072578287015190505b61207c8582611ffe565b8655506120e4565b601f19841661209286611e78565b60005b828110156120ba57848901518255600182019150602085019450602081019050612095565b868310156120d757848901516120d3601f891682611fe0565b8355505b6001600288020188555050505b50505050505056fea2646970667358221220c29b61e92c5ed55fb016f169a0e9c7bf46a797c47708db5021802b907683a39e64736f6c63430008120033",
    "linkReferences": {},
    "deployedLinkReferences": {}
}